:060000000A128A11142906
:10000800FD00030EFE000B1810200B1918207E0EA1
:100018008300FD0E7D0E090003138312061C850A5A
:10002800861C85030B10080003138312B43081006B
:100038000B118801711C2828F11C2D28711D3228EC
:10004800F11D3728711E3C287408870008167114A2
:100058000800750887008815F11408007C088700D7
:100068000814711508007B0887008814F11508002A
:0A0078007A0887000815F10108005E
:100200008A010A148F0582073F3406345B344F3469
:1002100066346D347D3407347F34673477347C340E
:1002200039345E347934713428214B2152218B17B3
:100230008B150B108B16031383125F2166210508A3
:10024000F0000508F6006D2175217F2185211D290B
:10025000031783168801890103138316850186011C
:100260000614861481131514951416149614870118
:10027000880188160817881703138316FF30860035
:100280007F308105FF3095000313831285018601BD
:10029000870188010800031383160F178F160F12AA
:1002A0000F140800031383168112811101158114A4
:1002B000011003138312B43081000B110800700881
:1002C0000F39F200700E0F39F30008007208002198
:1002D000F40073080021F5000800F9016430F6020B
:1002E000031C7429F90A6E2908006430F607F80126
:1002F0000A30F602031C7E29F80A782908000A3021
:10030000F607F7017608F700080079080021FC00DD
:0E03100078080021FB0077080021FA000800A1
:04400E00D420FF3F7C
:00000001FF
